:020000040000FA
:1000000038210020650100006D0100006F01000033
:1000100000000000000000000000000000000000E0
:10002000000000000000000000000000710100005E
:1000300000000000000000007301000075010000D6
:1000400077010000790100007B0100007D010000C4
:100050007F01000081010000830100008501000094
:100060008701000089010000F10500008D010000FA
:100070008F01000091010000930100009501000034
:1000800097010000990100009B0100009D01000004
:100090009F010000A1010000A3010000A5010000D4
:1000A000A7010000A9010000AB010000AD010000A4
:1000B000AF010000B1010000B3010000B501000074
:1000C00000F002F800F03EF80CA030C80838241800
:1000D0002D18A246671EAB4654465D46AC4201D180
:1000E00000F030F87E460F3E0FCCB6460126334274
:1000F00000D0FB1AA246AB4633431847AC0C0000B5
:10010000CC0C0000103A02D378C878C1FAD8520754
:1001100001D330C830C101D504680C6070470000BD
:100120000023002400250026103A01D378C1FBD813
:10013000520700D330C100D50B6070471FB51FBDFB
:1001400010B510BD00F0FAF81146FFF7F7FF00F008
:1001500053FD00F012F903B4FFF7F2FF03BC00F007
:1001600019F900001748804717480047FEE7FEE7E7
:10017000FEE7FEE7FEE7FEE7FEE7FEE7FEE7FEE757
:10018000FEE7FEE7FEE7FEE7FEE7FEE7FEE7FEE747
:10019000FEE7FEE7FEE7FEE7FEE7FEE7FEE7FEE737
:1001A000FEE7FEE7FEE7FEE7FEE7FEE7FEE7FEE727
:1001B000FEE7FEE7FEE7000004480549054A064B56
:1001C00070470000AD0B0000C100000038010020A6
:1001D00038210020381100203811002000220309A6
:1001E0008B422CD3030A8B4211D300239C464EE052
:1001F00003460B433CD4002243088B4231D303090E
:100200008B421CD3030A8B4201D394463FE0C309BF
:100210008B4201D3CB01C01A524183098B4201D3D7
:100220008B01C01A524143098B4201D34B01C01AC2
:10023000524103098B4201D30B01C01A5241C3083A
:100240008B4201D3CB00C01A524183088B4201D3A9
:100250008B00C01A524143088B4201D34B00C01A95
:100260005241411A00D201465241104670475DE0AA
:10027000CA0F00D04942031000D34042534000222D
:100280009C4603098B422DD3030A8B4212D3FC22D6
:10029000890112BA030A8B420CD3890192118B4255
:1002A00008D3890192118B4204D389013AD092116B
:1002B00000E08909C3098B4201D3CB01C01A524126
:1002C00083098B4201D38B01C01A524143098B42EF
:1002D00001D34B01C01A524103098B4201D30B01D8
:1002E000C01A5241C3088B4201D3CB00C01A5241FD
:1002F00083088B4201D38B00C01A5241D9D24308E4
:100300008B4201D34B00C01A5241411A00D2014620
:10031000634652415B10104601D34042002B00D58A
:100320004942704763465B1000D3404201B500204C
:10033000C046C04602BD704770477047754600F022
:1003400025F8AE46050069465346C008C0008546FC
:1003500018B020B5FFF730FF60BC00274908B6464B
:100360000026C0C5C0C5C0C5C0C5C0C5C0C5C0C5C4
:10037000C0C5403D49008D46704710B50446C04693
:10038000C0462046FFF7E7FE10BD0000004870475A
:10039000D800002001491820ABBEFEE7260002006D
:1003A000704700000246084B1868596800010009B0
:1003B000C908C90013071843702313401B091943C8
:1003C000014B18605960704700000D40002907D0AC
:1003D000074A1268012383401A43054B1A6006E05E
:1003E000034A1268012383409A43014B1A60704705
:1003F00000000D40FFB5534B1A6806460E36012328
:10040000B34016469E4332460B7806460E36B3403E
:100410001A434C4B1A605C68C61C0123B3400E366D
:100420000127B7403B4326469E4334468B78C61C83
:10043000B3404E7807461137BE4033431C43414B0F
:100440005C609D6801238340FE1E0127B7403B434B
:100450002E469E433546CB7883400E7907460E37AD
:10046000BE4033431D43374B9D60030000F0B6FB95
:100470000E08090A0B1E1F202136373839505168E3
:1004800000BF00BF00BF2F4B5B690393C300FF2673
:100490009E40039BB3430393C6008B68B340039E07
:1004A00033430393274E039B736149E000BF00BFB2
:1004B00000BF244B9B690293031FDB00FF269E4075
:1004C000029BB3430293061FF6008B68B340029E63
:1004D000334302931B4E029BB36131E000BF00BF68
:1004E00000BF184B9B6A01930346083BDB00FF26C5
:1004F0009E40019BB34301930646083EF6008B687D
:10050000B340019E334301930E4E019BB36217E04B
:1005100000BF0C4BDB6A009303460C3BDB00FF265D
:100520009E40009BB343009306460C3EF6008B684A
:10053000B340009E33430093024E009BF36200BF22
:1005400000BFFFBD00000D40002006490860486064
:100550008860C860086148618861C8610862886213
:10056000C862704700000D4030B50246002912D025
:10057000012904D002291CD0032934D127E01B4BC8
:10058000DB68012494402340002B01D0012300E0CC
:100590000023184627E0154BDB6814460E3401256E
:1005A000A5402B40002B01D0012300E0002318467A
:1005B00019E00E4B1B6914460E340125A5402B4053
:1005C000002B01D0012300E0002318460BE0074B6D
:1005D0001B69012494402340002B01D0012300E03B
:1005E0000023184600BF00BF30BD000000000D40D2
:1005F00070B500240025012000F034F810E000243C
:100600000CE000F029F806463146094800F0AAFB44
:100610000546002D01D100BFFEE7641C102CF0D36D
:1006200001210846FFF7A0FF0128E8D070BD0000B7
:1006300050000020002906D0064A926803071A439A
:10064000044B9A6005E0034A926803079A43014B02
:100650009A60704700000D400148406A70470000F2
:1006600000000D400149C8617047000000000D40C6
:100670000146064A10687F231B0202469A43104631
:100680000A021043014A10607047000000000E404B
:1006900010B5002914D0012808DC144A1268830020
:1006A00001249C402243114B1A601DE00F4A5268FE
:1006B000831E9B0001249C4022430C4B5A6013E094
:1006C000012808DC094A136884000122A2409343F0
:1006D000064A136008E0054A5368821E940001220E
:1006E000A2409343014A536010BD000000000E4039
:1006F000F0B5354DEC69C600FF25B5402646AE4342
:100700003446C6004D68B5402C432F4DEC6100289F
:1007100006D0012805D0022828D0032852D126E08F
:1007200000BF294D2A688600761C0125B540860049
:10073000B61C0127B7403D438600F61C0127B74091
:100740003D431646AE4332468D788600761CB54052
:100750004E788700BF1CBE4035430E788700FF1CD3
:10076000BE4035432A43184D2A602BE000BF164D8A
:100770006B68851EAE00761C0125B540861EB6004E
:10078000B61C0127B7403D43861EB600F61C012764
:10079000B7403D431E46AE4333468D78861EB600B5
:1007A000761CB5404E78871EBF00BF1CBE40354347
:1007B0000E78871EBF00FF1CBE4035432B43024D01
:1007C0006B6000BF00BFF0BD00000E400020034979
:1007D00008604860C86188607047000000000E40F3
:1007E000002806D0012807D0022808D003280CD101
:1007F00008E0074AD16008E0054A116105E0044AB3
:10080000516102E0024A916100BF00BF70470000E1
:1008100000000E4001490860704700000080014060
:100820000021C160016141600160816041618161BD
:10083000C1617047F0B589B045680895856807952E
:10084000C56806950569059545690495856903950B
:10085000C56902950022012303242E4D00950D88C1
:10086000019543E0019DED07ED0F002D35D0089D6A
:100870009D438E789640354308950D7A5600B540D5
:10088000079EA64335430795069D9D438E7A964065
:1008900035430695009E059DB543CE781746103723
:1008A000BE4035430E79964035430595009E049D24
:1008B000B5434E79BE4035438E7996403543049515
:1008C0004D7A5600B540039EA64335430395029DDD
:1008D0009D43CE799640354302955B00A400009D70
:1008E0006D000095521C019D6D080195019D002D24
:1008F000B8D1089D4560079D8560069DC560059D32
:100900000561049D4561039D8561029DC56109B036
:10091000F0BD0000010001000146074A50680029AF
:1009200002D00422104303E0042302469A431046F7
:10093000014A5060704700000000024010B50246B6
:10094000124BD868800880000346134318460F4BAB
:10095000D86058680F2424020346A34318460B02AC
:1009600018430A4B58605B6804242340042B0BD1C6
:10097000064B586808231843044B58600824034664
:10098000A3431846014B586010BD00000000024010
:1009900038B50020009000BF212000F045F8054642
:1009A0000098401C0090032149020098884201D21F
:1009B000002DF1D0212000F037F8002801D00124CB
:1009C00000E00024204638BD01460020064AD068D9
:1009D000002902D00422104303E0042302469A4374
:1009E0001046014AD0607047000002400146054AA7
:1009F000D068F02302469A4310460A011043014A88
:100A0000D0607047000002400146064AD0680323C8
:100A10001B0202469A43104602460A431046014A08
:100A2000D06070470000024010B50146E0230B4043
:100A3000202B02D1074B1A6801E0074BDA6BCC067A
:100A4000E40E0123A3401340002B01D0012000E05D
:100A5000002010BD0000024000800D400D49896853
:100A6000890889000B4A9160012802D002280ED122
:100A700006E00849896801221143064A916007E0AF
:100A80000449896803221143024A916000E000BFD3
:100A900000BF70470000024038B50020009000BF42
:100AA0002220FFF7C1FF05460098401C009003215B
:100AB00049020098884201D2002DF1D02220FFF790
:100AC000B3FF002801D0012400E00024204638BDF7
:100AD000002905D0054A926B0243044B9A6304E057
:100AE000024A926B8243014B9A63704700000240B6
:100AF000002905D0054AD2690243044BDA6104E0BB
:100B0000024AD2698243014BDA6170470000024019
:100B1000F8B52248C06802210840022801D1204CC3
:100B200000E01F4C1D48C068C007C00F002800D05F
:100B3000640825461948C06804210840042807D1E4
:100B4000164840680005000F471C284678430546B4
:100B50001248C0688005800F002804D0012806D004
:100B6000022815D10FE00E480E49086014E00B482A
:100B7000C0680006000F411C2846FFF72FFB064601
:100B800008490E6008E00120C0030649086003E040
:100B900005480449086000BF00BFF8BD00000240DE
:100BA00000127A0000000020409C000010B51020C8
:100BB0000949C86100208863C8604860886008618E
:100BC00048618861086248628862C8624863C86395
:100BD000FFF79EFF10BD00000000024030B47446D5
:100BE000641E2578641CAB4204D3635D5B00E3188C
:100BF00030BC18471D46F8E796B00025534800F072
:100C0000C5F8C5B2002D01D000BFFEE70120FFF7F7
:100C100025FFFFF741FF002801D100BFFEE70921B2
:100C20000220FFF78BFE0120FFF776FEFFF7B0FEF4
:100C3000002801D100BFFEE701210820FFF758FF7F
:100C40001820FFF7E7FD0120FFF7BEFE0020FFF7A9
:100C5000CDFEFF200130FFF7D7FE01218806FFF708
:100C600047FF01210807FFF743FF01210806FFF7AF
:100C70003FFF01218020FFF72BFF3548FFF7D0FD14
:100C80003448FFF7CDFD0C2033490880022008725C
:100C90000320487201208872002088712F48FFF7D6
:100CA000C9FD032080022C4908802948FFF7C2FDB6
:100CB000FFF74AFC5020FFF775FB002110A80173D5
:100CC00041738173C17301740020159013A9012031
:100CD000FFF790FB01210320FFF7ACFC0A2000285E
:100CE00009DB00BF00BFC206D20E012191401C4AA1
:100CF000116000BF00BF00BF01210846FFF766FB7F
:100D0000FFF764FD5020FFF7B3FC002110A88171AC
:100D100000201290012110A84171017111A9002039
:100D2000FFF7E6FC01210020FFF7B2FC0DE00024F4
:100D300009E0A00001A90C50A00001AA1158002050
:100D4000FFF74EFD641C102CF3D3F0E75000002099
:100D50000080134000000C400400002000000B4005
:100D600000E100E010B50246002A0DD00020937883
:100D7000202B0ADA93789C00134608331951937894
:100D80005B1C9370012000E0002010BD014600298B
:100D900007D001220A7000224A708A704A6000203F
:100DA00001E00020C0437047C80D00000000002093
:100DB0000400000004010000CC0D0000040000202D
:0C0DC000342100002001000000127A0025
:04000005000000C136
:00000001FF
